{
  "_format": "hh-sol-artifact-1",
  "contractName": "DataLicense",
  "sourceName": "contracts/DataLicense.sol",
  "abi": [
    {
      "inputs": [],
      "stateMutability": "nonpayable",
      "type": "constructor"
    },
    {
      "anonymous": false,
      "inputs": [
        {
          "indexed": true,
          "internalType": "address",
          "name": "user",
          "type": "address"
        },
        {
          "indexed": true,
          "internalType": "address",
          "name": "company",
          "type": "address"
        },
        {
          "indexed": false,
          "internalType": "uint256",
          "name": "licenseId",
          "type": "uint256"
        }
      ],
      "name": "AccessGranted",
      "type": "event"
    },
    {
      "anonymous": false,
      "inputs": [
        {
          "indexed": true,
          "internalType": "address",
          "name": "user",
          "type": "address"
        },
        {
          "indexed": true,
          "internalType": "address",
          "name": "company",
          "type": "address"
        },
        {
          "indexed": false,
          "internalType": "uint256",
          "name": "licenseId",
          "type": "uint256"
        }
      ],
      "name": "AccessRevoked",
      "type": "event"
    },
    {
      "anonymous": false,
      "inputs": [
        {
          "indexed": true,
          "internalType": "address",
          "name": "previousOwner",
          "type": "address"
        },
        {
          "indexed": true,
          "internalType": "address",
          "name": "newOwner",
          "type": "address"
        }
      ],
      "name": "OwnershipTransferred",
      "type": "event"
    },
    {
      "anonymous": false,
      "inputs": [
        {
          "indexed": true,
          "internalType": "address",
          "name": "user",
          "type": "address"
        },
        {
          "indexed": true,
          "internalType": "address",
          "name": "company",
          "type": "address"
        },
        {
          "indexed": false,
          "internalType": "uint256",
          "name": "amount",
          "type": "uint256"
        }
      ],
      "name": "PaymentMade",
      "type": "event"
    },
    {
      "anonymous": false,
      "inputs": [
        {
          "indexed": true,
          "internalType": "address",
          "name": "user",
          "type": "address"
        },
        {
          "indexed": false,
          "internalType": "string",
          "name": "username",
          "type": "string"
        }
      ],
      "name": "UserRegistered",
      "type": "event"
    },
    {
      "inputs": [
        {
          "internalType": "address",
          "name": "",
          "type": "address"
        },
        {
          "internalType": "uint256",
          "name": "",
          "type": "uint256"
        }
      ],
      "name": "companyLicenses",
      "outputs": [
        {
          "internalType": "uint256",
          "name": "",
          "type": "uint256"
        }
      ],
      "stateMutability": "view",
      "type": "function"
    },
    {
      "inputs": [
        {
          "internalType": "address",
          "name": "_company",
          "type": "address"
        }
      ],
      "name": "getCompanyLicenses",
      "outputs": [
        {
          "internalType": "uint256[]",
          "name": "",
          "type": "uint256[]"
        }
      ],
      "stateMutability": "view",
      "type": "function"
    },
    {
      "inputs": [
        {
          "internalType": "uint256",
          "name": "_licenseId",
          "type": "uint256"
        }
      ],
      "name": "getLicenseDetails",
      "outputs": [
        {
          "components": [
            {
              "internalType": "address",
              "name": "user",
              "type": "address"
            },
            {
              "internalType": "address",
              "name": "company",
              "type": "address"
            },
            {
              "internalType": "string",
              "name": "dataTypes",
              "type": "string"
            },
            {
              "internalType": "uint256",
              "name": "monthlyPayment",
              "type": "uint256"
            },
            {
              "internalType": "uint256",
              "name": "startTime",
              "type": "uint256"
            },
            {
              "internalType": "uint256",
              "name": "endTime",
              "type": "uint256"
            },
            {
              "internalType": "bool",
              "name": "isActive",
              "type": "bool"
            }
          ],
          "internalType": "struct DataLicense.License",
          "name": "",
          "type": "tuple"
        }
      ],
      "stateMutability": "view",
      "type": "function"
    },
    {
      "inputs": [],
      "name": "getTotalLicenses",
      "outputs": [
        {
          "internalType": "uint256",
          "name": "",
          "type": "uint256"
        }
      ],
      "stateMutability": "view",
      "type": "function"
    },
    {
      "inputs": [
        {
          "internalType": "address",
          "name": "_user",
          "type": "address"
        }
      ],
      "name": "getUserEarnings",
      "outputs": [
        {
          "internalType": "uint256",
          "name": "",
          "type": "uint256"
        }
      ],
      "stateMutability": "view",
      "type": "function"
    },
    {
      "inputs": [
        {
          "internalType": "address",
          "name": "_user",
          "type": "address"
        }
      ],
      "name": "getUserLicenses",
      "outputs": [
        {
          "internalType": "uint256[]",
          "name": "",
          "type": "uint256[]"
        }
      ],
      "stateMutability": "view",
      "type": "function"
    },
    {
      "inputs": [
        {
          "internalType": "address",
          "name": "_company",
          "type": "address"
        },
        {
          "internalType": "string",
          "name": "_dataTypes",
          "type": "string"
        },
        {
          "internalType": "uint256",
          "name": "_monthlyPayment",
          "type": "uint256"
        },
        {
          "internalType": "uint256",
          "name": "_durationMonths",
          "type": "uint256"
        }
      ],
      "name": "grantAccess",
      "outputs": [],
      "stateMutability": "nonpayable",
      "type": "function"
    },
    {
      "inputs": [
        {
          "internalType": "address",
          "name": "",
          "type": "address"
        },
        {
          "internalType": "address",
          "name": "",
          "type": "address"
        }
      ],
      "name": "hasAccess",
      "outputs": [
        {
          "internalType": "bool",
          "name": "",
          "type": "bool"
        }
      ],
      "stateMutability": "view",
      "type": "function"
    },
    {
      "inputs": [
        {
          "internalType": "address",
          "name": "_user",
          "type": "address"
        },
        {
          "internalType": "address",
          "name": "_company",
          "type": "address"
        }
      ],
      "name": "isAccessActive",
      "outputs": [
        {
          "internalType": "bool",
          "name": "",
          "type": "bool"
        }
      ],
      "stateMutability": "view",
      "type": "function"
    },
    {
      "inputs": [
        {
          "internalType": "uint256",
          "name": "",
          "type": "uint256"
        }
      ],
      "name": "licenses",
      "outputs": [
        {
          "internalType": "address",
          "name": "user",
          "type": "address"
        },
        {
          "internalType": "address",
          "name": "company",
          "type": "address"
        },
        {
          "internalType": "string",
          "name": "dataTypes",
          "type": "string"
        },
        {
          "internalType": "uint256",
          "name": "monthlyPayment",
          "type": "uint256"
        },
        {
          "internalType": "uint256",
          "name": "startTime",
          "type": "uint256"
        },
        {
          "internalType": "uint256",
          "name": "endTime",
          "type": "uint256"
        },
        {
          "internalType": "bool",
          "name": "isActive",
          "type": "bool"
        }
      ],
      "stateMutability": "view",
      "type": "function"
    },
    {
      "inputs": [],
      "name": "owner",
      "outputs": [
        {
          "internalType": "address",
          "name": "",
          "type": "address"
        }
      ],
      "stateMutability": "view",
      "type": "function"
    },
    {
      "inputs": [
        {
          "internalType": "address",
          "name": "_user",
          "type": "address"
        },
        {
          "internalType": "uint256",
          "name": "_amount",
          "type": "uint256"
        }
      ],
      "name": "payUser",
      "outputs": [],
      "stateMutability": "payable",
      "type": "function"
    },
    {
      "inputs": [
        {
          "internalType": "string",
          "name": "_username",
          "type": "string"
        }
      ],
      "name": "registerUser",
      "outputs": [],
      "stateMutability": "nonpayable",
      "type": "function"
    },
    {
      "inputs": [],
      "name": "renounceOwnership",
      "outputs": [],
      "stateMutability": "nonpayable",
      "type": "function"
    },
    {
      "inputs": [
        {
          "internalType": "address",
          "name": "_company",
          "type": "address"
        }
      ],
      "name": "revokeAccess",
      "outputs": [],
      "stateMutability": "nonpayable",
      "type": "function"
    },
    {
      "inputs": [
        {
          "internalType": "address",
          "name": "newOwner",
          "type": "address"
        }
      ],
      "name": "transferOwnership",
      "outputs": [],
      "stateMutability": "nonpayable",
      "type": "function"
    },
    {
      "inputs": [
        {
          "internalType": "address",
          "name": "",
          "type": "address"
        },
        {
          "internalType": "uint256",
          "name": "",
          "type": "uint256"
        }
      ],
      "name": "userLicenses",
      "outputs": [
        {
          "internalType": "uint256",
          "name": "",
          "type": "uint256"
        }
      ],
      "stateMutability": "view",
      "type": "function"
    },
    {
      "inputs": [
        {
          "internalType": "address",
          "name": "",
          "type": "address"
        }
      ],
      "name": "users",
      "outputs": [
        {
          "internalType": "address",
          "name": "userAddress",
          "type": "address"
        },
        {
          "internalType": "string",
          "name": "username",
          "type": "string"
        },
        {
          "internalType": "uint256",
          "name": "totalEarnings",
          "type": "uint256"
        },
        {
          "internalType": "bool",
          "name": "isRegistered",
          "type": "bool"
        }
      ],
      "stateMutability": "view",
      "type": "function"
    }
  ],
  "bytecode": "0x608060405234801561001057600080fd5b5061001a33610023565b60018055610073565b600080546001600160a01b038381166001600160a01b0319831681178455604051919092169283917f8be0079c531659141344cd1fd0a4f28419497f9722a3daafe3b4186f6b6457e09190a35050565b611abb806100826000396000f3fe6080604052600436106101095760003560e01c80638da5cb5b11610095578063b7fb44af11610064578063b7fb44af1461031d578063ead739121461033d578063ecd831e81461035d578063f2fde38b14610370578063f42b88091461039057600080fd5b80638da5cb5b1461027857806390b02bec146102a0578063967d56fd146102c0578063a87430ba146102ed57600080fd5b806358b0642b116100dc57806358b0642b146101d4578063704f1b94146101f6578063715018a61461021657806375a106c31461022b57806385e685311461025857600080fd5b80631709ef071461010e578063256d7a9c1461015e5780633379084514610181578063454c1d31146101b4575b600080fd5b34801561011a57600080fd5b50610149610129366004611518565b600560209081526000928352604080842090915290825290205460ff1681565b60405190151581526020015b60405180910390f35b34801561016a57600080fd5b506101736103c9565b604051908152602001610155565b34801561018d57600080fd5b506101a161019c36600461154b565b6103d9565b60405161015597969594939291906115aa565b3480156101c057600080fd5b506101736101cf3660046115fe565b6104ad565b3480156101e057600080fd5b506101f46101ef3660046116cb565b6104de565b005b34801561020257600080fd5b506101f4610211366004611729565b610828565b34801561022257600080fd5b506101f461094d565b34801561023757600080fd5b5061024b610246366004611766565b610961565b6040516101559190611788565b34801561026457600080fd5b506101f4610273366004611766565b6109cd565b34801561028457600080fd5b506000546040516001600160a01b039091168152602001610155565b3480156102ac57600080fd5b506101736102bb3660046115fe565b610bd4565b3480156102cc57600080fd5b506102e06102db36600461154b565b610bf0565b60405161015591906117cc565b3480156102f957600080fd5b5061030d610308366004611766565b610d47565b604051610155949392919061183f565b34801561032957600080fd5b50610149610338366004611518565b610e06565b34801561034957600080fd5b5061024b610358366004611766565b611037565b6101f461036b3660046115fe565b6110a1565b34801561037c57600080fd5b506101f461038b366004611766565b611380565b34801561039c57600080fd5b506101736103ab366004611766565b6001600160a01b031660009081526004602052604090206002015490565b60006103d460025490565b905090565b6003602052600090815260409020805460018201546002830180546001600160a01b0393841694929093169261040e9061187b565b80601f016020809104026020016040519081016040528092919081815260200182805461043a9061187b565b80156104875780601f1061045c57610100808354040283529160200191610487565b820191906000526020600020905b81548152906001019060200180831161046a57829003601f168201915b505050506003830154600484015460058501546006909501549394919390925060ff1687565b600660205281600052604060002081815481106104c957600080fd5b90600052602060002001600091509150505481565b3360009081526004602052604090206003015460ff166105195760405162461bcd60e51b8152600401610510906118b5565b60405180910390fd5b6001600160a01b03841661056f5760405162461bcd60e51b815260206004820152601760248201527f496e76616c696420636f6d70616e7920616464726573730000000000000000006044820152606401610510565b600082116105bf5760405162461bcd60e51b815260206004820152601e60248201527f5061796d656e74206d7573742062652067726561746572207468616e203000006044820152606401610510565b6000811161060f5760405162461bcd60e51b815260206004820152601f60248201527f4475726174696f6e206d7573742062652067726561746572207468616e2030006044820152606401610510565b3360009081526005602090815260408083206001600160a01b038816845290915290205460ff161561067c5760405162461bcd60e51b81526020600482015260166024820152751058d8d95cdcc8185b1c9958591e4819dc985b9d195960521b6044820152606401610510565b61068a600280546001019055565b600061069560025490565b905060006106a68362278d006118f8565b6106b0904261190f565b6040805160e0810182523381526001600160a01b0389811660208084019182528385018b8152606085018b905242608086015260a08501879052600160c0860181905260008a8152600390935295909120845181549085166001600160a01b03199182161782559251958101805496909416959092169490941790915591519293509160028201906107429082611970565b50606082015160038201556080820151600482015560a082015160058083019190915560c0909201516006918201805491151560ff19928316179055336000818152602094855260408082206001600160a01b038d168084529087528183208054909516600190811790955583835294865280822080548086018255908352868320018890558482526007865280822080549485018155825294902090910185905591519091907f65d0cc1e52d49938ca4ad9f423c79c1b84d914b9a683fbc5d3f93ac3cc5635f5906108189086815260200190565b60405180910390a3505050505050565b3360009081526004602052604090206003015460ff161561088b5760405162461bcd60e51b815260206004820152601760248201527f5573657220616c726561647920726567697374657265640000000000000000006044820152606401610510565b6040805160808101825233808252602080830185815260008486018190526001606086018190529381526004909252939020825181546001600160a01b0319166001600160a01b039091161781559251919291908201906108ec9082611970565b5060408281015160028301556060909201516003909101805460ff19169115159190911790555133907f48cac28ad4dc618e15f4c2dd5e97751182f166de97b25618318b2112aa951a2f90610942908490611a30565b60405180910390a250565b6109556113f9565b61095f6000611453565b565b6001600160a01b0381166000908152600660209081526040918290208054835181840281018401909452808452606093928301828280156109c157602002820191906000526020600020905b8154815260200190600101908083116109ad575b50505050509050919050565b3360009081526004602052604090206003015460ff166109ff5760405162461bcd60e51b8152600401610510906118b5565b3360009081526005602090815260408083206001600160a01b038516845290915290205460ff16610a685760405162461bcd60e51b81526020600482015260136024820152724e6f2061636365737320746f207265766f6b6560681b6044820152606401610510565b33600090815260066020908152604080832080548251818502810185019093528083529192909190830182828015610abf57602002820191906000526020600020905b815481526020019060010190808311610aab575b5050505050905060005b8151811015610bcf576000828281518110610ae657610ae6611a43565b602090810291909101810151600081815260039092526040909120600101549091506001600160a01b038581169116148015610b33575060008181526003602052604090206006015460ff165b15610bbc57600081815260036020908152604080832060068101805460ff1990811690915542600592830155338086529184528285206001600160a01b038a168087529085529483902080549091169055905184815290917f6f6a404ffd2cea4713256a4fd9ce99c8cf8cf32d85c2bb8061d1603ff57d50c3910160405180910390a350505050565b5080610bc781611a59565b915050610ac9565b505050565b600760205281600052604060002081815481106104c957600080fd5b610c446040518060e0016040528060006001600160a01b0316815260200160006001600160a01b03168152602001606081526020016000815260200160008152602001600081526020016000151581525090565b600082815260036020908152604091829020825160e08101845281546001600160a01b039081168252600183015416928101929092526002810180549293919291840191610c919061187b565b80601f0160208091040260200160405190810160405280929190818152602001828054610cbd9061187b565b8015610d0a5780601f10610cdf57610100808354040283529160200191610d0a565b820191906000526020600020905b815481529060010190602001808311610ced57829003601f168201915b505050918352505060038201546020820152600482015460408201526005820154606082015260069091015460ff16151560809091015292915050565b600460205260009081526040902080546001820180546001600160a01b039092169291610d739061187b565b80601f0160208091040260200160405190810160405280929190818152602001828054610d9f9061187b565b8015610dec5780601f10610dc157610100808354040283529160200191610dec565b820191906000526020600020905b815481529060010190602001808311610dcf57829003601f168201915b50505050600283015460039093015491929160ff16905084565b6001600160a01b03808316600090815260056020908152604080832093851683529290529081205460ff16610e3d57506000611031565b6001600160a01b038316600090815260066020908152604080832080548251818502810185019093528083529192909190830182828015610e9d57602002820191906000526020600020905b815481526020019060010190808311610e89575b5050505050905060005b815181101561102a576000828281518110610ec457610ec4611a43565b6020908102919091018101516000818152600383526040808220815160e08101835281546001600160a01b0390811682526001830154169581019590955260028101805494965092949390929184019190610f1e9061187b565b80601f0160208091040260200160405190810160405280929190818152602001828054610f4a9061187b565b8015610f975780601f10610f6c57610100808354040283529160200191610f97565b820191906000526020600020905b815481529060010190602001808311610f7a57829003601f168201915b50505091835250506003820154602080830191909152600483015460408301526005830154606083015260069092015460ff1615156080909101528101519091506001600160a01b038781169116148015610ff357508060c001515b801561100357508060a001514211155b15611015576001945050505050611031565b5050808061102290611a59565b915050610ea7565b5060009150505b92915050565b6001600160a01b0381166000908152600760209081526040918290208054835181840281018401909452808452606093928301828280156109c157602002820191906000526020600020908154815260200190600101908083116109ad5750505050509050919050565b6110a96114a3565b6001600160a01b0382166110f65760405162461bcd60e51b8152602060048201526014602482015273496e76616c69642075736572206164647265737360601b6044820152606401610510565b600081116111465760405162461bcd60e51b815260206004820152601d60248201527f416d6f756e74206d7573742062652067726561746572207468616e20300000006044820152606401610510565b8034101561118d5760405162461bcd60e51b8152602060048201526014602482015273125b9cdd59999a58da595b9d081c185e5b595b9d60621b6044820152606401610510565b6001600160a01b03821660009081526004602052604090206003015460ff166111c85760405162461bcd60e51b8152600401610510906118b5565b6001600160a01b038216600090815260046020526040812060020180548392906111f390849061190f565b90915550506040516000906001600160a01b0384169083908381818185875af1925050503d8060008114611243576040519150601f19603f3d011682016040523d82523d6000602084013e611248565b606091505b50509050806112995760405162461bcd60e51b815260206004820152601760248201527f5061796d656e74207472616e73666572206661696c65640000000000000000006044820152606401610510565b81341115611332576000336112ae8434611a72565b604051600081818185875af1925050503d80600081146112ea576040519150601f19603f3d011682016040523d82523d6000602084013e6112ef565b606091505b50509050806113305760405162461bcd60e51b815260206004820152600d60248201526c1499599d5b990819985a5b1959609a1b6044820152606401610510565b505b60405182815233906001600160a01b038516907f0a58819e8a8484b4b953261f35757d54a8bb44412938c22784e056a69ffa17c99060200160405180910390a35061137c60018055565b5050565b6113886113f9565b6001600160a01b0381166113ed5760405162461bcd60e51b815260206004820152602660248201527f4f776e61626c653a206e6577206f776e657220697320746865207a65726f206160448201526564647265737360d01b6064820152608401610510565b6113f681611453565b50565b6000546001600160a01b0316331461095f5760405162461bcd60e51b815260206004820181905260248201527f4f776e61626c653a2063616c6c6572206973206e6f7420746865206f776e65726044820152606401610510565b600080546001600160a01b038381166001600160a01b0319831681178455604051919092169283917f8be0079c531659141344cd1fd0a4f28419497f9722a3daafe3b4186f6b6457e09190a35050565b6002600154036114f55760405162461bcd60e51b815260206004820152601f60248201527f5265656e7472616e637947756172643a207265656e7472616e742063616c6c006044820152606401610510565b6002600155565b80356001600160a01b038116811461151357600080fd5b919050565b6000806040838503121561152b57600080fd5b611534836114fc565b9150611542602084016114fc565b90509250929050565b60006020828403121561155d57600080fd5b5035919050565b6000815180845260005b8181101561158a5760208185018101518683018201520161156e565b506000602082860101526020601f19601f83011685010191505092915050565b6001600160a01b0388811682528716602082015260e0604082018190526000906115d690830188611564565b90508560608301528460808301528360a083015282151560c083015298975050505050505050565b6000806040838503121561161157600080fd5b61161a836114fc565b946020939093013593505050565b634e487b7160e01b600052604160045260246000fd5b600082601f83011261164f57600080fd5b813567ffffffffffffffff8082111561166a5761166a611628565b604051601f8301601f19908116603f0116810190828211818310171561169257611692611628565b816040528381528660208588010111156116ab57600080fd5b836020870160208301376000602085830101528094505050505092915050565b600080600080608085870312156116e157600080fd5b6116ea856114fc565b9350602085013567ffffffffffffffff81111561170657600080fd5b6117128782880161163e565b949794965050505060408301359260600135919050565b60006020828403121561173b57600080fd5b813567ffffffffffffffff81111561175257600080fd5b61175e8482850161163e565b949350505050565b60006020828403121561177857600080fd5b611781826114fc565b9392505050565b6020808252825182820181905260009190848201906040850190845b818110156117c0578351835292840192918401916001016117a4565b50909695505050505050565b60208152600060018060a01b0380845116602084015280602085015116604084015250604083015160e06060840152611809610100840182611564565b905060608401516080840152608084015160a084015260a084015160c084015260c0840151151560e08401528091505092915050565b6001600160a01b038516815260806020820181905260009061186390830186611564565b60408301949094525090151560609091015292915050565b600181811c9082168061188f57607f821691505b6020821081036118af57634e487b7160e01b600052602260045260246000fd5b50919050565b602080825260139082015272155cd95c881b9bdd081c9959da5cdd195c9959606a1b604082015260600190565b634e487b7160e01b600052601160045260246000fd5b8082028115828204841417611031576110316118e2565b80820180821115611031576110316118e2565b601f821115610bcf57600081815260208120601f850160051c810160208610156119495750805b601f850160051c820191505b8181101561196857828155600101611955565b505050505050565b815167ffffffffffffffff81111561198a5761198a611628565b61199e81611998845461187b565b84611922565b602080601f8311600181146119d357600084156119bb5750858301515b600019600386901b1c1916600185901b178555611968565b600085815260208120601f198616915b82811015611a02578886015182559484019460019091019084016119e3565b5085821015611a205787850151600019600388901b60f8161c191681555b5050505050600190811b01905550565b6020815260006117816020830184611564565b634e487b7160e01b600052603260045260246000fd5b600060018201611a6b57611a6b6118e2565b5060010190565b81810381811115611031576110316118e256fea2646970667358221220f2085eefa40536a71df46dbc46febab7feee9f7cacd74d5618ed52488a39a41364736f6c63430008130033",
  "linkReferences": {},
  "deployedLinkReferences": {}
}